:100000008015002031070000B74300001D070000E5
:100010001D0700001D0700001D0700000000000074
:10002000000000000000000000000000F5070000D4
:100030001D07000000000000950700001D070000DC
:100040009909000099090000990900009909000028
:100050009909000099090000990900009909000018
:100060009909000099090000990900009909000008
:1000700099090000990900009909000099090000F8
:1000800099090000990900009909000099090000E8
:1000900099090000990900009909000099090000D8
:1000A00099090000990900009909000099090000C8
:1000B00099090000990900009909000099090000B8
:1000C00099090000990900009909000099090000A8
:1000D0009909000099090000990900009909000098
:1000E0009909000099090000990900009909000088
:1000F0009909000099090000990900009909000078
:1001000008B50748038AB3F5FA7F06D900230549E5
:10011000038204F09FF9002008BD01330382FAE74F
:10012000E8040020484F000008B50748038AB3F5EB
:10013000FA7F06D900230549038204F08BF90020D9
:1001400008BD01330382FAE7E8040020544F0000A1
:10015000024803490023038204F070B9E804002038
:10016000484F0000014804F095B900BFE8040020A2
:10017000014B1B68184700BF20010020014B18608D
:10018000704700BF2001002030B585B004460D4601
:1001900010220021684604F013FD02238DF802307E
:1001A0002A46044B01932146684603F02FFD05B013
:1001B00030BD00BF7101000080B505460E461746F0
:1001C000984603F07BFA034604F066FDDFF81890CA
:1001D000044649F80030424630463946A84754F8AC
:1001E000090000F0C1FA00BF080000002DE9F04747
:1001F000058B04462807904611D4022905F007050F
:1002000040F0CC80204603F0F4FF78B10138218B18
:10021000042811D8DFE800F0C2106D85950001298F
:100220000CBF45F0100545F02005258388F31188A3
:10023000BFF36F8FBDE8F08701F0070AAA4500F011
:10024000A5800027B9463E46A368002B00F0BC807D
:1002500041F00801218388F31188BFF36F8FA168F3
:10026000002900F0BA800D68002900F0B680D1F8AE
:100270000480334652462046C047002D76D02B6876
:1002800029461D46F0E701F007035A1F012A1BD833
:10029000002221F00701062B276889B2C4E9002259
:1002A00009D13B4603E0628B013262831B68002B5D
:1002B000F9D141F002012183204603F09AFF002882
:1002C0007AD041F0200176E0042B0AD121F0070119
:1002D00089B22183204603F08CFF10B141F0200148
:1002E0002183218B01F0070AAA454FD00027B94688
:1002F000AAE7236921F0070141F00601062DD3F892
:10030000009021832DD1B9F1000F3FD041F00801B9
:10031000218388F31188BFF36F8F3A492046C8477D
:1003200029E021F00701236941F0040189B2042D7D
:10033000D3F804902183E6D000273E464FF0040A0C
:1003400082E721F00701236941F0050189B2052DFB
:10035000D3F808902183D6D000273E464FF0050AF7
:1003600072E700273E464FF0060A6DE72B4687E707
:10037000B9F1000FD1D1EFF31188202383F3128854
:10038000BFF36F8F238B23F008032383258BEA06AB
:100390002ED525F01003238305F007056669218B10
:1003A000002EBFF670AF00232768C4E9003321F0A8
:1003B000070141F001012183218B01F0070AAA45C1
:1003C0004FF000097FF440AF002F9CD041F00801AE
:1003D000218388F31188BFF36F8F002FC8D03D6849
:1003E000394633465246204603F02FFF2F46F4E7A6
:1003F000AB067FF51BAF25F02003238305F007052F
:1004000000E700BF77420000014B03600020704707
:10041000604F000030BFFFF7FDBF00BF2DE9F04186
:100420000B4EDFF8308006EB0807CC1B0546324642
:100430000949204604F0B6FBA01942460021083CB9
:1004400004F0BEFB2C6707F10800BDE8F08100BF97
:100450000000000004000000384F0000054B5A69FE
:100460009B689A421FBF044A536843F0805353600D
:10047000704700BFBC05002000ED00E070B5264BC2
:1004800015469A6A12F0100F9A6A14BF11241024AC
:1004900012F0080F9A6A18BF1224920706460AD56E
:1004A000586B9A6A140634D519B19A6A22F0800200
:1004B0009A62132401E06FF01500174B9A6A12F04C
:1004C000010F9A6A18BF142412F0200F9A6A18BFFD
:1004D0001524D20602D49B6A9B070AD50E4B5B6893
:1004E000190506D5314600F011FA10B180F30988DC
:1004F0000224094B9A6A920642BF5A6A22F40052B9
:100500005A629A6A42F0FF029A6200232B702046D8
:1005100070BD6FF01500CCE700ED00E0134B9A6A58
:1005200012F0007F9A6A14BF1E201D2012F0807FF7
:100530009A6A18BF1F2012F4002F9A6A18BF212050
:1005400012F4802F9A6A18BF222012F4003F9A6A90
:1005500018BF232012F4803F9A6A6FEA02426FEAC2
:1005600012429A6218BF2420704700BF00ED00E0DD
:1005700010B5194B0246986A9C6A10F4805F14BF4C
:100580001720162014F4006F9C6A18BF1820A405C9
:1005900009D5986B986A000404D51AB19A6A22F4B6
:1005A00000429A6219200C4B9A6A12F4806F9A6A80
:1005B00018BF1A20D2050CD49B6A13F4005F18BF31
:1005C0001C20054A936A43F47F43936200230B7017
:1005D00010BD1B20F5E700BF00ED00E0F0B5484B73
:1005E0005B688BB00446C3F30803002585F31188CC
:1005F000BFF36F8F02F07F40B0F17F4F11D102F057
:100600000C0008280DD010074CBF0C460125002215
:10061000033B8DF80720032B05D8DFE803F02463A4
:1006200067602C46F3E700239DF80720CAB902AEA5
:1006300004F1200720686168324603C20834BC42D6
:100640001646F7D1099A002D54D0C2F3080121B9FA
:100650006FEA52226FEA4222099202A9184603F079
:10066000A0FE0BB0F0BD264BDA6A9107DBD4DA6A44
:10067000002AD8DBDA6A5200D5D55A69A16942F45A
:1006800080725A61BFF34F8FBFF36F8F5A6931F891
:10069000021C22F480725A61BFF34F8FBFF36F8F39
:1006A0004DF6027291420AD09A6AD2B24AB10DF165
:1006B000070201212046FFF7E1FE0346B4E7236865
:1006C000B2E79A6A12F47F4F05D00DF107010120BD
:1006D000FFF74EFFF1E79B6AB3F5803FA3D3FFF727
:1006E0001DFFEAE70DF107020021E3E70DF1070125
:1006F0000020EDE722F4FF7222F00102ACE700BF18
:1007000000ED00E0044B5A6942F010025A615A6948
:1007100022F008025A61704700ED00E0EFF3088014
:10072000EFF3098101B57246FFF758FF01BD00BF25
:100730000B4880F3088801F06FFB202080F31188BC
:1007400008484FF40461401880F30988EFF31480DF
:100750000221084380F31488BFF36F8F00F09EF8E6
:1007600080150020C0070020084B9B6883420BD1F6
:10077000EFF3058343B1064B5A6842F080525A604A
:100780005A6A22F400425A6202F09EBFBC05002061
:1007900000ED00E014498A684FF030001044EFF398
:1007A000098C80E8F01F202080F31288BFF36F8F40
:1007B0000E4F4FF000664A698A603E60106F0C4C25
:1007C0002060506F0023536780F3118804B51046F2
:1007D00000F000F9BDE8044002F1300090E8F01F9D
:1007E0008CF3098870470000BC05002004ED00E090
:1007F000FC0400201EF0040F0CBFEFF30880EFF3A1
:100800000980816911F8021C0229FFD001B57246E6
:1008100003F0CDFD01BD00BF40B2002807DB044A54
:100820004109012300F01F00834042F82130704746
:1008300000E100E0054B420900F01F0053F82220C0
:10084000012303FA00F01040704700BF00E100E010
:1008500040B20028A8BF00F1604001F10101B8BF1B
:10086000064B4FEA4111ACBF00F5614000F00F00AC
:10087000C9B2B4BF195480F80013704714ED00E0FA
:10088000044B054A23F07F039360BFF34F8FBFF300
:100890006F8F70470000000000ED00E008B5FFF723
:1008A000EFFF0B4AD2F8883023F47003C2F8883087
:1008B000EFF3148323F0040383F31488BFF36F8FE3
:1008C00002F06EF903F034F800F05AF802F0ACF9D7
:1008D00000ED00E042F8203C009B42F81C3C0A4935
:1008E000019B42F8183C029B42F8143C21F00101A4
:1008F0004FF0807342F8043C42F8081C0023203A71
:1009000002654367704700BFB9010000094A03460A
:10091000906870B113F1160F006E05D0A0F140027F
:100920009A4205D8834203D2814228BF00207047F3
:1009300000207047BC05002008B515460B4A0C4B3B
:100940009060026F1A600E4600F044F82C4686F361
:1009500009880020034B98472046002100220023ED
:10096000014C2047CD430000B9010000BC05002028
:10097000FC040020014B10221A61704700ED00E0DA
:10098000044800232021C2180133302B82F80013C1
:10099000F9D1704700E100E008B5EFF30583064A9E
:1009A000103B02EBC30152F8330049688847BDE8A9
:1009B0000840FFF753BD00BF6C4D0000024B034AD7
:1009C0000348012100F076B8000004200000002058
:1009D000604F0000026E054B403A1A60044A402105
:1009E000C3E901121846012100F06EB8000500208D
:1009F00000000B15084AC2F898000B6823F01F038B
:100A0000034343F01003C2F89C308B6843F00103AA
:100A1000C2F8A030704700BF00ED00E02DE9F043C0
:100A2000DFF8608085B00E461F4604464FF000098F
:100A3000B14523DA6068D8B13FB1411E08421BD1ED
:100A40001F2819D92368194216D12368019303F08E
:100A5000E0FCA36803430393D8F89050C5F307253F
:100A6000D0B2013DA84207D801A9FFF7C3FF421C3D
:100A700009F101090C34DBE76FF01502104605B0EF
:100A8000BDE8F08300ED00E0044B0522C3F894209C
:100A9000BFF34F8FBFF36F8F704700BF00ED00E0D3
:100AA000BFF35F8F024B0022C3F89420704700BF52
:100AB00000ED00E010B5034C01232278FFF7AEFFF4
:100AC000207010BDF005002008B50B4A00231278F5
:100AD000FFF7A4FF10F1160F07D0084A0021D2F843
:100AE0009030C3F30723984200DB08BDC2F898009A
:100AF000C2F8A0100130F2E7F005002000ED00E0A0
:100B00002DE9F043534B544CD3F890302568C3F390
:100B100007239D4285B000F29A80FFF7C1FF0020B5
:100B20000C2685421AD14D4C4D4F25706846FFF773
:100B30006BFCDFF82081DFF82C9106460025AE42E1
:100B400013D1237843490020D1F89020C2F3072223
:100B5000934276DBFFF798FF002042E0616806FBD6
:100B60000011FFF747FF0130DBE7009800EB0511AC
:100B70004FEA051CCB683B40B3F5000F48D00AD8BC
:100B8000B3F5001F30D0B3F5800F36D0B3F5801F1A
:100B900010D00135D3E7B3F1807F42D0B3F1007FAD
:100BA000F7D150F80C3088684A6803F032FC40F402
:100BB000802009E050F80C3088684A6803F029FC6E
:100BC00040F0885040F43020CDE901230390D8F85C
:100BD00090302078C3F30723013B98422AD96FF065
:100BE000150005B0BDE8F08350F80C3088684A68FD
:100BF00003F00FFC40EA0900E6E750F80C30886883
:100C00004A6803F006FC40F0C06040F40030DBE7C7
:100C100050F80C3088684A6803F0FBFB40F08270A3
:100C2000D2E750F80C3088684A6803F0F2FB40F0D5
:100C30008870C9E701A9FFF7DDFE2378013323702F
:100C4000A7E7C1F89830C1F8A00001337CE74FF066
:100C5000FF30C6E700ED00E06C4F0000F00500201B
:100C60000000F0FF0000081108B5024B1B68984710
:100C7000002008BD0C050020034B044A186093783F
:100C800043F00203937070470C05002024010020FC
:100C900008B50649064821F00701C1F1005202F5E6
:100CA000802203F05AFA002008BD00BF071A002076
:100CB000100500200E4A0123C2F840354FF0804253
:100CC0004FF08051C2F87835D1F83001082808D1AA
:100CD000D1F83411052904D80648415C09B1C2F89D
:100CE00038364FF080430122C3F88025002070473A
:100CF00000E001406F50000020B1034B800143F041
:100D000001031847704700BF404F0000084B70B503
:100D1000C31A0D4607499B10044659430648402212
:100D200003F0D1FB2B4601462046BDE87040184732
:100D300030050020B76DDBB6EC4C000073B50C4CF1
:100D40000C4A4023041B00930D460B460A49A4108D
:100D500061430646094803F0E2FB011E05DA30460E
:100D60002B4602B0BDE87040184702B070BD00BF0E
:100D70003005002089450000B76DDBB6EC4C000063
:100D800010B5EFF31184202383F31288BFF36F8F24
:100D9000074A136823F00201DB07116002D4012027
:100DA00003F0F3FC84F31188BFF36F8F10BD00BF15
:100DB00080050020002270B5012104461046FFF78F
:100DC00047FD0F4801F0B2F90E4B984215D101F0E2
:100DD000BDF926690C49304603F05AFA00280BDBAE
:100DE000012535642469084904F11C0003F050FA18
:100DF000002801DBE564002070BD6FF00400FBE714
:100E0000050F00000000AD0B8C4F00001FB5002245
:100E10000123CDE90223094ACDF800D06B46CDF875
:100E200004D003F0AAFB002805DB4FF48042002326
:100E3000684601F095FF05B05DF804FBA74500008A
:100E400030B4104B0C2202FB003301460020D3E9E2
:100E50000E529863EFF31180202484F31288BFF3BD
:100E60006F8F1C6C04F0C00444F002041C6480F317
:100E70001188BFF36F8F1DB12B46034830BC184754
:100E800030BC704730050020EC4C000010B4EFF38C
:100E90001182202383F31288BFF36F8F17480168F4
:100EA00041F002040460C80707D482F31188BFF33D
:100EB0006F8F012010BC01F05BB94FF08041D1F879
:100EC0000C04D1F80C14C907EFD5EFF3118083F3AC
:100ED0001288BFF36F8F0A490B6C03F0C00343F015
:100EE00002030B6480F31188BFF36F8F82F31188C4
:100EF000BFF36F8F002010BCFFF7A2BF800500205A
:100F00003005002010B1012804D07047034B1B6C42
:100F10005B0701D1FFF794BF704700BF3005002089
:100F20002DE9F0413849BFF35B8F0746012251E8B4
:100F3000003F41E800200028F9D1BFF35B8F33B9AF
:100F4000324933484B60CB608A6003F0B4F97B1EB2
:100F5000012B2BD8012F07D14FF08043D3F81C343D
:100F600003F00303012B21D003F01DFD0546F8B962
:100F7000284B1B78E3B14FF080430222C3F80823CB
:100F80000646DFF894804FF08044D4F81824D4F853
:100F90001834D20315D503F00303012B01D0012F20
:100FA0000FD155B386F31188BFF36F8FBDE8F08181
:100FB000EFF31186202383F31288BFF36F8F01258F
:100FC000DFE7ADB1304603F015FAD4F81835002B41
:100FD000DBD1D4F80421002AD7D0C4F80431D4F8E6
:100FE00004310123C4F81835C8F88031A360CCE778
:100FF0000021212003F04AFDE7E74FF08043022261
:10100000C3F80423D2E700BF2C0500201C050020F4
:101010004C050020F305002000E100E008B507487A
:1010200003F03AFC38B10648FFF726FE0448FFF704
:10103000A5F8002008BD6FF01200FBE74C4D000042
:10104000451000000A2838B5074D044604D1AB68A6
:101050000D215B6828469847AB6803485B68E1B29E
:101060009847204638BD00BF4C4D0000F0B51646ED
:101070004268107B01F01F0444EA4014106987B0F5
:10108000002872D0B6F5001F02F1100506D12146E6
:10109000284603F0FAFB002007B0F0BD01A80027A6
:1010A000B6F5800F0197476039D1B3F1007F14BFC7
:1010B000052304238DF804300023CDE904030393B2
:1010C000936823FA01F111F001010DF103073ED1FC
:1010D000B6F1A07F3BD104F01F03620903F5E07372
:1010E00028D0012A47D1254A52F82330DB072ED4D5
:1010F0003A462146284601F023FB214B98421CD05A
:10110000029703AA2146284601F0DCF91D4B9842BC
:101110002ED101222146284601F076FBBBE7B3F130
:10112000C06F05D0B3F1007F14BF01230223C1E7D4
:101130000323BFE74FF0A042D6E73946284601F027
:101140005DFB104B9842DBD06FF00B00A4E73A46F2
:101150002146284601F0F4FA0A4B9842D1D19DF875
:101160000310284601F044FBCBE76FF0850093E7BE
:101170006FF0150090E751F82330FFDE00030050B8
:101180000400AD0B0000AD0B420970B5034602D060
:10119000012A17D070BD0D4E326951680029F9D06F
:1011A00003F01F0301250C689D400029F2D08A68D6
:1011B0002A4002D04B68304698472CB1236821461C
:1011C0001C46F2E7024EE7E72346F8E72C4D000005
:1011D0000C4D000038B545682B69B3B11035284671
:1011E00001F0FCFA044680B90146284601F0C2FA33
:1011F000084B98420BD108492246284601F09AFA3A
:10120000224605210620FFF723FB002038BD6FF0A2
:101210000400FBE70000AD0B891100002DE9F0434D
:10122000466840F20635D006337B87B002EA0505F2
:1012300054BFC2F34010032001F01F07B5F5837FB0
:10124000144647EA43178DF8030045D00DD8062D04
:1012500016D005D8A5B1022D40D06FF0150038E0AA
:10126000B5F5807FF9D101250AE040F202229542CE
:1012700036D0B5F5407F35D0B5F5007FEDD10225EC
:101280000123220303FA01F12ED57368C3F8081570
:10129000326992BB07F01F037F092BD0012F79D150
:1012A0003F4A02EB830284F48033D2F80017C3F381
:1012B0000043C4F3404444EA430421F4E16144EAB6
:1012C000800421F0070144EA05230B43C2F80037EC
:1012D000002007B0BDE8F0830725D1E70425CFE75C
:1012E0000525CDE70325CBE7630344BF7368C3F847
:1012F0000C15CDE74FF0A042D3E710360DF10202F6
:101300003946304601F01CFA14F4403F80460CD1B7
:101310003946304603F0B7FA224B9845D8D19DF8AC
:101320000210304601F064FAD2E701AB4FF0000939
:1013300003AA39463046CDE90439CDE90199CDF803
:101340000C9001F0BFF8174B9842C1D114F4003350
:1013500015D09DF803308DF80E3084F48034C4F33A
:1013600000444B4603AA394630468DF80C508DF8A0
:101370000D4001F061F90B4B9842A9D1CCE7CDE9C2
:10138000043303AA0DF1030339463046039301F0F9
:1013900099F8F0E703F5E07352F82330FFDE00BF61
:1013A000000300500000AD0B036803F01F025B094F
:1013B000026004D0012B034818BF002070474FF093
:1013C000A0407047000300502DE9F04FDFF89491E2
:1013D000DFF894A185B01546834600EB810140F209
:1013E000FF18594503D1002005B0BDE8F08FDBF8A8
:1013F00000305E04C3F3C322C3F3080400F1AC80E1
:101400001B0E19F80270444508BF4FF0FF34222B21
:1014100000F2A580DFE803F012191F22252B22A37A
:10142000A3A3A33B68A3A3A3A3A3A3A3A3A36B8189
:101430008487A3A3A38A9194979A9D00C5F80C452D
:10144000601C5ED10BF1040BCBE7C5F81445621CA0
:10145000F8D000265FE0C5F80845F1E7C5F810456B
:10146000F5E7631CC5F80845ECD0002604E0661CCF
:10147000C5F80C45E6D0012603A80394FFF794FFB6
:10148000039B012202FA03F3C0F80C3508E0C5F80B
:101490000845002FDBD1631CD4D000263246062736
:1014A000DBF80030019303F40040002818BF00224D
:1014B00003A8009218BF01260394FFF775FF039C51
:1014C000019B009A00EB8400C3F3412CD0F8004745
:1014D0003B0243EA8C03134304EA0A04234343EA2E
:1014E0004603C0F80037ADE7C5F80C45D1E7C5F8AD
:1014F0006045601CDBF80030A4D0C3F30043002B30
:10150000B9D003A80394FFF74FFF039B012606FA07
:1015100003F3C0F808353246C2E7C5F86445E8E78A
:10152000C5F86845E5E7C5F86C45E2E7C5F8244528
:10153000621C87D000220126B2E7C5F828457FE764
:10154000C5F83045F4E7C5F83445F1E7C5F8384546
:10155000EEE7C5F83C4573E76FF0150044E76FF020
:10156000850041E7A0500000F0F8FCFF2DE9F041B4
:10157000044647680D4603F016FA4FF0200888B974
:10158000264B1B7873B16426606803F091F8F0B9BC
:10159000012003F0ECF8013EF6D10021212003F0F8
:1015A00075FAF0E7EFF31186314688F31288BFF33E
:1015B0006F8F606803F07CF8A8B986F31188BFF3D9
:1015C0006F8FEFE786F31188BFF36F8FE5E7EFF3D7
:1015D0001186314688F31288BFF36F8F606803F07D
:1015E00067F80028EED0BB691D706368BA691B6894
:1015F0000020C3F844250122C3F84825C3F8200180
:10160000D3F82041C3F85801D3F858019A6081F308
:101610001188BFF36F8FBDE8F08100BFF305002094
:10162000F7B50546002201210220FFF711F902203B
:10163000FFF7F2F86A6811681369C1F82435137D61
:10164000507D927D03431343C1F86C356E68D6E933
:10165000004313F0010348D02F6907F1080003F09D
:1016600092F8304B98425AD1387A04F10C0204F5C2
:10167000907103F07EF8387A012707FA00F000F045
:10168000EDFC0823C4F80035B369C4F844350023E1
:10169000C4F84835A760D4F85831002BFBD000219E
:1016A000C4F800156B68DC6801AA204602F0D3FF7D
:1016B000002805DB019B226819791868FFF784FE72
:1016C0006A6813680821C3F80015117A51B9D26904
:1016D000C3F834250122C3F83825C3F81011D3F814
:1016E00010111A60002003B0F0BD0822C4F80025D4
:1016F000B269C4F84425C4F848350123A360D4F87E
:101700002031002BFBD00023C4F82031D4F8203145
:101710000123E3604FF48073C4F80433BBE76FF038
:101720000400E0E70000AD0B70B5012383400E4AD2
:10173000BFF35B8FDC4352E8001F01EA040542E877
:101740000056002EF7D1BFF35B8F4FF480328240FA
:101750000648C0F80823BFF35F8FBFF36F8F0B42BB
:1017600014BF0120002070BDAC0500200010014016
:1017700070B40E49D1E90034D01AC31844F1000402
:1017800022F07F46C1E90034A6F50013B3F5400FFF
:1017900009D2074B1B681A0A1B069C19054B42F11C
:1017A0000005C3E9004570BC02F09CB9100200209E
:1017B000B00500201802002011B3BFF35B8F012396
:1017C000104A834052E800CF4CEA030C42E800C1C3
:1017D0000029F7D1BFF35B8F0B4A4FF4803383406E
:1017E000C2F80433094BBFF35B8F1B68BFF35B8FF9
:1017F000C340DB0742BF064B4FF40032C3F8002161
:10180000704700BFAC05002000100140A805002073
:1018100000E100E00D4B1868010A0006BFF35F8F7E
:101820000B4BD3F80435181841F10001B3F5801FB4
:101830000AD2084BD3E90023904271EB030303D291
:1018400010F1807041F10001704700BFB005002029
:1018500000100140180200202DE9F04F85B0164617
:101860001F469DF840A00446FFF75EFF0190FFF77A
:10187000D1FFB04271EB070354D23E4B301A67EBF5
:101880000101984271F100014FD23B4B03EB04136D
:10189000D3E902239F4208BF96425ED037494FF4F6
:1018A000803804F1500508FA04F8AD00C1F8488307
:1018B0002046ADB202F02DFF26F07F4B05F18045AA
:1018C00004F5A87305F58835DC464FF0030902934B
:1018D000029A2CF07F4341F82230C1F84483D1F8BA
:1018E0000435274A6FF00200C01A604420F07F40A0
:1018F000904232D9286868B1D1F804350393A3EB3C
:101900000B0020F07F40B0F5000F26D9204602F0F2
:1019100000FF039BBAF1000F07D109EB030C09F19B
:101920000109D5E7BAF1000F09D06FF0150520467F
:101930000199FFF741FF284605B0BDE8F08F01236C
:10194000104ABFF35B8FA34052E8000F184342E8F0
:1019500000010029F8D1BFF35B8F07490E982301DE
:1019600001EB0412C8500F9B5360C2E902670025C7
:10197000DDE700BF010080000002002000100140F0
:10198000FDFF7F00A80500207FB51C4C1C4BC4F850
:101990000833C4F848331B4B00254FF0FF304FF09D
:1019A000FF31C4F80855C3E902014FF48033C4F88D
:1019B0000433154B02264FF400320121C4F80463AE
:1019C0001120C3F880212A46FEF742FF1120FEF7BE
:1019D00023FF0E4A0123A360236013600C4B0D4AC2
:1019E0000093CDE9015500232846FFF735FF304627
:1019F000FFF796FA284604B070BD00BF0010014002
:101A000003000F000002002000E100E0AC05002010
:101A100071170000FFFF7F002DE9F7432F4CD4F82A
:101A2000043399070BD5D4F8043143B12C4A002371
:101A3000C4F80431D4F80431136801331360D4F8C6
:101A40000433DA0329D5BFF35B8F264B53E8002F0D
:101A500022F0010143E800100028F7D1BFF35B8FAB
:101A6000D30702D4D4F84031BBB10025C4F84051AB
:101A7000D4F84031FFF7CEFEEFF31182202383F339
:101A80001288BFF36F8F184BD3E90267B042B94198
:101A900006D282F31188BFF36F8F03B0BDE8F083E5
:101AA0004FF0FF384FF0FF39C3E90289D3E9001046
:101AB0001D604FF48033C4F84833C4F84051D4F863
:101AC000403182F31188BFF36F8F0029E5D0009079
:101AD00032463B4628468847DFE700BF00100140FA
:101AE000B0050020A80500200002002030B5431CEE
:101AF000124C85B005D08442A8BF0446012CB8BF63
:101B00000124FFF787FE0E4B0C4DD3E90013401A5A
:101B1000B0F5000F10D22218AA4228BF2A46521848
:101B20004FF0000007490091CDE9010043F10003A7
:101B3000FFF792FE05B030BD2A46F0E7FFFF7F00B9
:101B4000100200207117000008B5FFF763FE024B7A
:101B50001B68C01A08BD00BF1002002070B50A4EF5
:101B60001546002456F8040B037925FA03F3DB0726
:101B700005D54FF424720023183001F087FA0134A0
:101B8000E4B2042CEED170BD1C5000002DE9F84FDA
:101B9000304EDFF8C480DFF8C490314F002556F88E
:101BA000044B206802F078FE18B96FF00400BDE81D
:101BB000F88FE3882068217943F48032D0F810E070
:101BC000D0F808A013F0010F4FF0010CDEF8003040
:101BD0000CFA01FC14BF4CEA030323EA0C03CEF811
:101BE0000030DAF8003098470028DEDB20682179E1
:101BF00082680369D2F818B0BBF1000FD5D01B681A
:101C00004FF0010A0AFA01F21A4214BF4FF0707342
:101C10004FF0B86303EA08034FF0A072D8470028DA
:101C2000C3DB237920680AFA03F3C4E904938368C9
:101C3000DB6904F10C010BB1524698470135394676
:101C400004F11800EDB202F0A2FE042DA7D100208D
:101C5000ADE700BF1C500000400000065D1B000007
:101C6000534700002DE9F041254E88B0002501279B
:101C700056F8044B206802F00FFE20B96FF0040004
:101C800008B0BDE8F08120682179E388D0F810C061
:101C9000D0F80880DCF80040DA0754BF43F4B013F2
:101CA00083F4D01323F4801207FA01FEDB074CBF44
:101CB0004EEA040424EA0E04CCF80040D8F80030C0
:101CC00098470028DADB0135042DD1D10D4D0E499E
:101CD00000220023CDE9062300240123CDE90334AB
:101CE000CDE90144094B00944FF4C072284601F03D
:101CF0001FFAC5F8800001F02DFB2046C0E700BFA9
:101D00002C5000002002002000060020351D00009D
:101D1000032809D8064B53F8203018681B79012195
:101D2000994083685B6918476FF01500704700BFE2
:101D30002C50000070B5104D104E4FF47E700021F5
:101D400002F0A4FE002495F88430E340DB070ED5B2
:101D500056F824205389118903F635439BB29942E2
:101D6000538104D800235381E0B2FFF7D1FF01343F
:101D7000042CE8D1E1E700BF200200202C50000035
:101D8000032870B504460D4624D8144A012192F860
:101D90008430814023EA010382F884301BB9D2F8F1
:101DA000800001F0D7FA0E4B53F8243018681A79E6
:101DB000012303FA02F103691B68194203D025B11C
:101DC00083681B6903E0002DFAD08368DB68BDE8F7
:101DD000704018476FF0150070BD00BF2002002052
:101DE0002C5000004FF08053D3F83021082A06D140
:101DF000D3F83431052B02D8024AD05C704700205A
:101E0000704700BFBC500000024AD2F80034002BDB
:101E1000FBD0704700E0014010B54FF08053D3F87D
:101E20003021082A4ED14FF080420021C2F80C1117
:101E3000C2F81011C2F8381502F54042D3F8041464
:101E4000C2F82015D3F80814C2F82415D3F80C14DE
:101E5000C2F82815D3F81014C2F82C15D3F81414AE
:101E6000C2F83015D3F81814C2F83415D3F81C147E
:101E7000C2F84015D3F82014C2F84415D3F824143E
:101E8000C2F84815D3F82814C2F84C15D3F82C140E
:101E9000C2F85015D3F83014C2F85415D3F83414DE
:101EA000C2F86015D3F83814C2F86415D3F83C149E
:101EB000C2F86815D3F84014C2F86C15D3F844344E
:101EC000C2F87035FFF78EFF18B13A4B3A4AC3F8A3
:101ED0008C26FFF787FF18B1384BFB22C3F8182573
:101EE000FFF780FF70B14FF080414FF08053D1F881
:101EF000E42ED3F8583222F00F0203F00F031343FD
:101F0000C1F8E43EFFF76EFF20B12D4B4FF4007295
:101F1000C3F840264FF08053D3F83031082B1AD144
:101F20004FF08043D3F80024D20744BF6FF0010282
:101F3000C3F800244FF08053D3F83431052B02D876
:101F4000204AD35C3BB14FF01023D3F808224FF066
:101F50008043C3F858254FF01023D3F80022002AFD
:101F600003DBD3F80432002B22DA174901234FF0A8
:101F70001020C1F804351224FFF746FFC0F80042D4
:101F8000FFF742FFC0F80442FFF73EFF0023C1F80D
:101F90000435FFF739FFBFF34F8F0C490C4BCA686C
:101FA00002F4E0621343CB60BFF34F8F00BFFDE745
:101FB00010BD00BF005000404881030000F0004009
:101FC00000900240B650000000E0014000ED00E04B
:101FD0000400FA0530B50468CCB1BFF35B8FB4FAE6
:101FE00084F3C3F11F03DBB201229A4024EA020208
:101FF00050E8005FA54204D140E8002CBCF1000F7E
:10200000F6D1BFF35B8FE6D102480B7030BD0248BA
:10201000FCE700BF0000AD0B0200AD0B10B503687C
:10202000CB40DB0714D401238B400268BFF35B8FE6
:1020300043EA020150E8004F944204D140E8001CFA
:10204000BCF1000FF6D1BFF35B8FEED1014810BD9C
:102050000148FCE70000AD0B0400AD0B014BC3F8D9
:102060000405704700F00140F7B50546F8B10128B6
:102070001BD104224FF4807301464FF0804003448B
:102080000244C0F808130026012111601E608D4231
:102090001B688DF8071008BF0DF1070642F2107497
:1020A0004FF0804745B1012D28D003B0F0BD0C2280
:1020B0004FF482730221E0E7D7F8183403F4803339
:1020C0003EB9002BF1D0012002F051FB013CF3D1CD
:1020D000EBE7D7F8182402F003023260002BE4D0BB
:1020E0009DF80700012803D102F041FB013CD9D142
:1020F000012DDAD10C4B00225A71D6E7D7F80C34F7
:1021000003F480333EB9002BF4D0012002F02FFB02
:10211000013CF3D1EEE7D7F80C2402F00102327053
:10212000002BDDD1E6E700BFB4050020044B1A798F
:1021300022B9012218609A8002487047024870470D
:10214000B40500200000AD0B0C00AD0B08B5074B2B
:102150001B682BB10020FEF76DFB08B9FEF75CFB96
:102160004FF080430022C3F8182508BDB4050020B5
:1021700010B510B1012843D010BD4FF08043D3F803
:102180001814D3F81824C80321D502F00303012B37
:1021900004D013B10020FFF767FF00234FF0804207
:1021A0000220C2F8183508224FF4827303F18043ED
:1021B0000021196002F180421C6801241460154A54
:1021C00012680AB34FF08043C3F80403D4E7D3F88E
:1021D0001424D107E1D5D3F81C249207DAD40D4A90
:1021E00012681AB10222C3F80423C5E7D3F8042108
:1021F000002AFBD00022C3F80421D3F80431BBE746
:1022000000224FF48073D1E71A68002AFCD01960CD
:102210001B68B1E7B4050020F8B54FF080431C4EB1
:10222000D3F804430125002704B9F8BDB4FA84F0BB
:10223000C0F11F00830003F580739BB203F180435C
:1022400005FA00F2196892B224EA02040029EBD0E0
:102250001F601B684FF08043012AC3F8082305D094
:10226000022A08D03368C0B29847DDE77379002BA3
:10227000DAD17271F6E7D3F81814D3F81814890775
:10228000F0D1C3F81855C3F804239D60CCE700BF14
:10229000B4050020036803F01F025B09026004D04C
:1022A000012B034818BF002070474FF0A040704733
:1022B00000030050034A430900F01F00D35C184498
:1022C000C0B27047C250000070B50546FFF7F2FF7C
:1022D0000C4C08300E4634F81030DA0508D5C3F33C
:1022E000432304EBC302284654F83330526898471E
:1022F000A3682BB1E26831462846BDE87040184714
:1023000070BD00BF6401002008B5FFF7D3FF034B89
:10231000083033F81000400B08BD00BF64010020F6
:1023200008B5FFF7C7FF034B083033F81000C0F3C0
:10233000400008BD6401002008B5FFF7BBFF034B58
:10234000083033F81000C0F3401008BD64010020CD
:10235000034611F0010010B5CCB20DD1A207C4F3B1
:10236000400012D5094AD2F820055860C2F820056D
:10237000003818BF012008E04FF0A041D1F8202517
:102380001A60C1F82025002AE8D010BD00030050D3
:1023900010B5FFF78FFF124A083032F81030D90518
:1023A0001CD5C3F3432123F4F85322F8103002F173
:1023B0000E04002034F8023F13F4807F03D0C3F3EF
:1023C000432399420AD001303028F3D1002342F848
:1023D00031300448BDE81040FFF720BE10BD00BFFB
:1023E00064010020DC010020F0B505460020044611
:1023F000012607468C420BD1114BD3F87C2132B118
:102400000022C3F87C21D3F87C3140F00040F0BDBD
:10241000E3B29B0003F580729B0806FA03F31D42AA
:102420000BD002F1804202F5C042D2F800C0BCF1EC
:10243000000F02D01760126818430134DAE700BFBA
:1024400000600040F7B506460846FFF733FF194F16
:1024500000F108050C4637F81530DB0727D5304664
:1024600002F0EDF92046FFF767FF40B12046FFF785
:102470004BFF316800F5A270002341F82030204660
:10248000FFF786FF002301A827F815300194FFF716
:1024900001FF019B00EB8300074BD0F8002713409E
:1024A00043F00203C0F80037044803B0F0BD04480D
:1024B000FBE700BF64010020F0F8FCFF0000AD0B5B
:1024C0000400AD0B2DE9FF41164680460846FFF794
:1024D000F1FE0D463168044609B32846FFF720FF98
:1024E00018B12846FFF728FF10BB0023CDE90033C1
:1024F0008DF80E308DF80F300DF10F020B46284687
:102500000DF10E0102F043F9474A04F1080132F8D7
:10251000113023F0020343F0010322F811307368F5
:1025200063B328461F785968FFF7FAFE10B1D1B19E
:102530003E4826E03C4A04F1080032F8103023F00F
:102540002003DB04DB0C22F8103061B1032FEFD83D
:102550007168496891F800C0D8F80010A7B90CF567
:10256000A27C41F82C70304A04F1080132F8113095
:1025700023F01C0343EA870322F81130B3684BBBF6
:102580002B4804B0BDE8F08101EB8C0143EA4C33E9
:10259000D1F810E52EF0030EC1F810E5D8F80010C0
:1025A00001EB8C0E43F02003DEF8101522F81030FA
:1025B00021F44F3121F44071CEF810152902DEF8D4
:1025C000108501F47C5141EA074141EA0801CEF847
:1025D0001015C8E7D3E900672846FFF7D9FE002E9B
:1025E000CED0114DD5E90023964203D19F4201D1AF
:1025F000002209E00F480DF10F01FFF7EBFC0C4B37
:102600009842BED19DF80F2045F8326005EBC20319
:1026100008345F6035F8143043EA422343F4807392
:1026200025F81430ACE700BF640100200400AD0BB6
:102630000000AD0BDC0100202DE9F0430C4685B015
:102640008046204611461E46FFF734FE054629B354
:102650002046FFF765FE18B92046FFF76DFE18BB50
:10266000314F05F1080937F8193013F01C0F02D06B
:102670004B78012B18D001238DF80F300023CDE9C2
:1026800000134A1C8B1C20460DF10F0102F07FF84D
:1026900037F8193043F0030327F81930002E41D0E2
:1026A0002046FFF73DFE18B9204805B0BDE8F0838D
:1026B00096F800C0D8F800301B4F0CF5A27200212C
:1026C00043F8221005F1080237F8121021F020011A
:1026D000C904C90C27F8121075781DB3D8F800008A
:1026E000B67800EB8C002D04D0F8103523F4991344
:1026F00023F4F853C0F81035230203F47C5305F497
:1027000040353605D0F810E52B4306F4801641EA33
:102710004C31334341F0200143EA0E0327F81210F5
:10272000C0F810350248C0E7640100200400AD0B7A
:102730000000AD0B014BC3E9021270476401002099
:1027400010B508461446FFF7F7FD50B10846FFF7ED
:10275000B1FD054B083033F8103004485B0B237093
:1027600010BD0348FCE700BF640100200000AD0B72
:102770000400AD0B70B5164D95F8804006462CBB95
:102780002146602205F1100002F01AFA30682E6F1F
:1027900021468E420ED10023C0F87C31D0F87C3126
:1027A00040F30730FEF738F801230A4885F88030F7
:1027B000AB6770BDCBB29B0003F580727C2B08BF6A
:1027C000845001F1010108BF8358E2E70248F0E7B5
:1027D000640100200000AD0B0C00AD0B034B93F81F
:1027E0008000003818BF0120704700BF640100203E
:1027F0000148FFF713BC00BFD80100200148FFF7D4
:10280000E9BB00BFD801002073B503681646D3F8B2
:102810000423002AA8BF4FF000420546A8BFC3F812
:10282000042308460C46FFF787FD00B30846FFF770
:1028300077FD0146D8B92046FFF766FD04B2A40033
:1028400004F5807203462868815029688258214423
:10285000D1F8102542F00102C1F810252EB12968E7
:10286000012202FA03F3C1F8043302B070BD20461E
:10287000FFF720FD0F4B083033F81030C3F382030D
:10288000042B12D0052B12D001A80194FFF702FDF2
:10289000019AD0F81035D34003F00103991C20466B
:1028A00002B0BDE8704001F0BBBF0321F7E7022191
:1028B000F5E700BF640100202DE9F04F694BDFF818
:1028C000A891D3F80403D9F87010C0B289B040F0D1
:1028D0000040FFF789FD051E2EDACA4600235AF88C
:1028E0007C1F06A8CDE90633FFF732FD5F4B01934D
:1028F0000DF118084FF0000B019A12F8013B0192FC
:10290000DA0803F007031AF8022022FA03F3DA07C1
:102910001BD408F10408BBF1000F13D000214FF0C5
:102920000040FFF761FDD9F87C1006A8FFF710FD05
:102930000028DBD125F000450124002D79D109B014
:10294000BDE8F08F4FF0010BD6E7494B5B44029393
:10295000D8F800100029DCD0029B91FAA1F11C7874
:10296000B1FA81F141EA44142046FFF7A3FC083094
:10297000059439F81070C808BB0818F800200393B4
:1029800001F00701012303FA01F122EA010208F82C
:10299000002005A8FFF77EFC059A039B02F5E07274
:1029A000C7F3820650F822205B073746C2F3014284
:1029B00024D520463946D6B2FFF786FC05A80594F3
:1029C000FFF768FC059B03F5E07350F82330C3F371
:1029D00001439E4207D10021204601F021FF3146EC
:1029E000204601F01DFF05A80594FFF753FC059B49
:1029F000012202FA03F3C0F82035A9E7022A0CD11C
:102A00000321204601F00CFF06F00503012BEAD15B
:102A100039462046FFF758FCE5E70221204603929D
:102A200001F0FEFE032EF3D0039A032ADBD1022E1F
:102A3000EDE795FAA5F3B3FA83F304FA03F29B00EA
:102A400003F1804303F5C04325EA0205D3F81005DE
:102A5000D3F81015C0F30520C1F30141FFF734FC92
:102A60006BE700BF0060004064010020D25000000E
:102A7000D250000001460148FFF7ACBAE80100203F
:102A800038B5EFF31185202383F31288BFF36F8FDE
:102A9000064B9C6801F013FF85F31188BFF36F8F1D
:102AA0002046BDE83840FDF75FBE00BFBC050020F2
:102AB00038B50A4B53F82040013053F82050A54256
:102AC00000D838BD606830B1037FDB0701D401F066
:102AD000F9FE0834F3E723689847FAE73C50000012
:102AE00070B52A4B2A4C2B4D012286B003201A7058
:102AF000FFF7DEFF01F06EF80420FFF7D9FF26464E
:102B0000AE4204F1300410D300F0E4FC204C224E1D
:102B1000AC4226D300F0F2FC01F0D5FA1F4A137B39
:102B200023F00103137306B070BD54F80C3C0593F9
:102B300054F8103C049354F8143C039354F8183C94
:102B4000029354F81C3C019354F8203C009354E940
:102B50000A2354E90C0100F09FFA54F8303C5E65FA
:102B6000CDE7D4E90A23B3F1FF3F08BFB2F1FF3F3D
:102B700005D052EA0301206803D100F07BFD303418
:102B8000C6E73146183000F01DFFF8E7F3050020D6
:102B9000EC4E0000EC4E0000854A000028030020A7
:102BA00008B50348034A0021121A01F0A2FE08BD2D
:102BB00000020020F805002070B5002386B0012235
:102BC000CDE90423134E144D01930F22CDE90232B7
:102BD0001249142303FB005506EBC01604464FF4BC
:102BE000C07000FB04110E4B00954FF4A0723046EC
:102BF00000F052FA737B0B4AEE6023F00403737308
:102C00004FF4046304FB033313442C746B6006B06D
:102C100070BD00BFA8020020BC05002000100020ED
:102C2000FB480000C0070020BFB50020FFF740FFB1
:102C3000294B83F30888294C294F636943F40073B7
:102C400063610025E02384F82230E57725766576F8
:102C5000A57684F82050636A43F4E023636284F825
:102C60002350FDF74FFDFDF785FE4FF0FF33A362C4
:102C7000E362FDF745FFFDF7A1FE1A481A4C00F08C
:102C800083FA01F008FE0120FFF712FF0220FFF790
:102C90000FFF00F067FC154B15495C61154B059360
:102CA0000123CDE903534FF480623B46CDE9015542
:102CB0000095204600F0F0F9627B064622F00402FF
:102CC0002046627301F0B2FE2846FFF775FF3A46D0
:102CD00031462046FDF730FE0010002000ED00E0F8
:102CE000E12A0000A803002028030020BC050020E2
:102CF00080110020D450000070B5EFF3118620231E
:102D000083F31288BFF36F8F0468A0421AD0CCB14E
:102D1000D4E9003213605A60637B002523F002037C
:102D20006373C4E90055A56004F1180001F00EFFBB
:102D30002046A56701F07AFE31460848BDE870409C
:102D400000F0A2BBD0E902329A4218BF013383607F
:102D500086F31188BFF36F8F70BD00BFF4050020AC
:102D600013B5EFF31181202484F31288BFF36F8F22
:102D7000846844B1013C846081F31188BFF36F8F94
:102D8000002002B010BD52EA030406D181F311887D
:102D9000BFF36F8F6FF00F00F3E7CDE9002302461A
:102DA000014800F04FFBECE7F40500202DE9FF415E
:102DB0004F4E04462027EFF3118887F31288BFF3A4
:102DC0006F8FD4F88450F5B9022104F19C0001F012
:102DD0009FFD002868D004F19405002201212846B7
:102DE00001F07BFE0028F8D1002302934FF0FF3260
:102DF0004FF0FF33CDE90023414604F18C023D48FA
:102E000000F0FEFCD7E7D4F888202B68C4F88430A3
:102E1000954208BFC4F88830D4F89C3043F00203D0
:102E2000C4F89C30EB6823F0040343F00103EB602B
:102E30006B6888F31188BFF36F8F28469847EFF3CC
:102E4000118887F31288BFF36F8FEB68D80623F0E1
:102E5000010236D4EA60EB689A0716D5306823F091
:102E60000203EB6088B10368002170B142689542AB
:102E700035D1036869BB72683360824200D17360E8
:102E8000002340F8083BFFF737FFD4F89C3023F0CD
:102E90000203C4F89C3088F31188BFF36F8FDB0501
:102EA00089D400F067FB86E7D4F89C30D9069BD51F
:102EB000C4F89C0088F31188BFF36F8F04B0BDE89D
:102EC000F08123F01103EB6005F11000FFF714FF10
:102ED000C1E70B607368834208BF7160D0E723B11C
:102EE0001A68014618461346BFE71A46F9E700BFBD
:102EF000DC050020F4050020F8B5C3689A070446F5
:102F00000F46C3F340062ED45B071CD40B680BB9E5
:102F100083680B60E368DD0744BFA3683B603D68DE
:102F20004CBF02260126002D3CD0204B9A68D5F8D4
:102F300080309A420AD0D5F89C30D807C3F380027B
:102F400014D46FF0120600233B6025E001F02BFD46
:102F5000D5F89C300028F0D1D907C3F3C002F0D5D2
:102F600052B15B0708D46FF00F06ECE7002AFAD1E4
:102F7000C3F3C003002BF6D100232360D5F88830BB
:102F800063B9C5E92144284601F0DCFCE36843F05D
:102F90000403E3603B68A3603046F8BD1C60C5F8DD
:102FA0008840F0E76FF01506CDE700BFBC050020B4
:102FB000F0B589B004460020C4E921000E9D04F15B
:102FC0008C00C4E9230004F19400C4E9250055B342
:102FD0002879002840F2011008BF0120C4F89C00A5
:102FE00000204FF0FF364FF0FF37CDE90330CDE939
:102FF0000100CDE906670D4B0094204600F098F8DB
:1030000055B1296811B1204601F0D3FC6B791BB191
:10301000237B43F001032373204600F02BFBC4F80D
:10302000804009B0F0BD0120D8E700BFAD2D000001
:10303000F7B50C46019016461D46EFF31187202385
:1030400083F31288BFF36F8F084601F06CFC55EADA
:10305000060309D101A92046FFF74EFF87F3118827
:10306000BFF36F8F03B0F0BDE368074943F0080377
:10307000E360019BA36232462B4604F1100000F08E
:10308000A1FC0120EAE700BF5349000001460148C6
:10309000FFF7CEBF480400202DE9F043073285B08A
:1030A00022F007020E461F461099017300F15803E3
:1030B0007F32C0E916330446002322F03F02042188
:1030C000836041733F2A0F98A073C4E90633E3730A
:1030D00006F14009A2F1400805D883F31188BFF337
:1030E0006F8F084602DFB51829462046FDF796F98E
:1030F00007300E9B20F00700A066C4E918980293E1
:103100000D9B01932D1A0C9B00932A463B4631469A
:103110002046FDF7DFFB00236365044B9B6803B18A
:10312000DB6EE366284605B0BDE8F083BC050020F1
:10313000F0B587B000250595109D04950F9D03956A
:103140000E9D0295DDE912760D9D01950C9D009571
:103150000446FFF7A1FFB6F1FF3F08BFB7F1FF3FFD
:1031600005D056EA070305D1204600F083FA204631
:1031700007B0F0BD3A46334604F11800014900F0AB
:1031800021FCF4E7854A000040F20113838100230B
:10319000C0E91833C366014B98607047BC05002036
:1031A000094A93686FF00A019967084958674B68A4
:1031B00043F080534B60002383F31188BFF36F8F7C
:1031C0009368986F704700BFBC05002000ED00E0D9
:1031D00070B590F90D20437B002A36DBD90634D137
:1031E0001B4C63F07F032246437352F8183FE1699A
:1031F000934207D1C0E900210860E06111E09942E3
:10320000F8D01B68002BF5D090F90E5093F90E60A2
:10321000B542F4D0AE42F2DD5968C0E90031086031
:103220005860A569954200D005B9E568A3685A7B46
:10323000D20604D1DA897F2A01D9AA6932B1AB4218
:1032400002D0284600F01CFB656170BD6361FCE79D
:10325000BC05002038B590F90D20437B002A0146BB
:1032600004DA03F07F03437301F0A6FB0D4D2A46F9
:10327000AB6852F8184F944200D004B9EC688B4206
:1032800007D05A7BD20604D1DA897F2A01D9A269F4
:103290002AB1A34202D0204600F0F2FA23466B6125
:1032A00038BD00BFBC050020B3F1FF3F08BFB2F13D
:1032B000FF3F03D00249183000F084BB704700BFC5
:1032C000854A000070B590F90D20437B002A014625
:1032D00004DA03F07F03437301F06EFB4B7B1C4C5D
:1032E00063F07F0322464B7352F8183FE069934224
:1032F00007D1C1E900200160E16111E09842F8D0F6
:103300001B68002BF5D091F90E5093F90E60B54271
:10331000F4D0AE42F2DD5868C1E900300160596076
:10332000A569A368954200D005B9E5688B4207D02E
:103330005A7BD20604D1DA897F2A01D9AA692AB137
:10334000AB4202D0284600F09BFA2B46636170BD69
:10335000BC050020F8B5394CA2688242074624D14A
:10336000EFF305830BBBEFF31186202383F3128861
:10337000BFF36F8F537B03F07F0343F0100353734E
:1033800001F01AFB234653F8185F9D4200D005B99F
:10339000E568A3689D4202D0284600F071FA656195
:1033A0003046BDE8F840FFF7FBBEEFF31185202360
:1033B00083F31288BFF36F8F7B7BD90604D585F327
:1033C0001188BFF36F8FF8BDD90943F0100219D1EE
:1033D0007A73A6691A4B9E4200D006B9E668A368C4
:1033E000B34202D0304600F04BFAA36866619F42B8
:1033F000E5D1EFF30583002BE1D13A7BD2070AD464
:103400002846CEE703F07F0343F010037B73384672
:1034100001F0D2FADDE785F31188BFF36F8F83F3F4
:103420001188BFF36F8F0423184602DFEFF311807A
:10343000202383F31288BFF36F8FB2E7BC0500200F
:10344000D4050020F8B50E4B0C4611460D4A98687D
:103450001060DDE90667EFF31182202282F3128803
:10346000BFF36F8F9D68284601F0B8FA28463246B0
:103470003B46FFF719FF2046BDE8F840FFF790BE36
:10348000BC050020E405002049B9EFF3058030B900
:10349000054B5A699B689A4201D0FFF781BE81F3C0
:1034A0001188BFF36F8F7047BC050020034648B9F1
:1034B000EFF3058232B9064A51699268914201D010
:1034C000FFF76EBE83F31188BFF36F8F704700BFA5
:1034D000BC050020EFF31181202383F31288BFF392
:1034E0006F8F054B9A68D37B013BD37381F31188AF
:1034F000BFF36F8F704700BFBC05002070B5EFF3BE
:103500001186202383F31288BFF36F8F144DAB68AD
:10351000DA7B0132DA732A4652F8184F944200D00F
:1035200004B9EC685A7BD20604D1DA897F2A01D922
:10353000A2692AB1A34202D0204600F0A1F9234695
:103540006B6186F31188BFF36F8FEFF31180202337
:1035500083F31288BFF36F8FBDE87040FFF7A6BFFB
:10356000BC050020024B03F11802C3E90622704794
:10357000BC05002070B5EFF31186202383F3128879
:10358000BFF36F8F1B4CA168E0690B68814214BFC9
:103590001A46002249680B605960A368E1692AB99C
:1035A000154AC3E900210B60E3610CE093F90E00BA
:1035B00092F90E50A84218D0854216DD5168C3E931
:1035C00000210B605360A5690B4B9D4200D005B9EB
:1035D000E568A3689D4202D0284600F051F9656174
:1035E0003046BDE87040FFF7DBBD8A42D8D0126894
:1035F000D5E700BFBC050020D4050020F8B550EA8F
:10360000010306460C4603D1FFF7B4FF0020F8BDC6
:10361000EFF31187202383F31288BFF36F8F124DCE
:10362000124BA8681860FFF715FEA86810492346DA
:103630003246183000F0C6F9AA68537B43F0040301
:10364000537304463846FFF7ABFDAB68D3E90A2352
:10365000B3F1004F08BF002AD8D101F09FFA201A19
:1036600020EAE070D3E700BFBC050020E40500209D
:10367000854A000038B50446EFF31185202383F313
:103680001288BFF36F8F437B5B070FD5183001F0B3
:103690005DFA637B23F0040320466373FFF798FD14
:1036A00029460548BDE83840FFF7EEBE85F311888E
:1036B000BFF36F8F38BD00BFF4050020014B986841
:1036C000704700BFBC0500202DE9F8430446077B86
:1036D000EFF31185202383F31288BFF36F8F437BB1
:1036E000190705D585F31188BFF36F8FBDE8F883FF
:1036F000D90943F008025AD14273A36813B1204696
:1037000001F062F904F1180001F020FAA66D04F14D
:103710005808B04511D04FF0000976B1304601F09D
:1037200053F906F1180001F011FAC6F87890304606
:10373000FFF74EFDA66DB045EFD1DFF8B880D8F8A1
:1037400008309C423BD1EFF30589B9F1000918BF5D
:103750004FF00109D8F81860274A964200D00EB9F8
:10376000D8F80C60B34202D0304600F089F8C8F8AF
:103770001460B9F1000F02D02048FFF705FDD8F81A
:1037800008309C4231D1EFF3058373BB227BD20713
:1037900018D42846FFF704FDFB07A7D5002383F3C1
:1037A0001188BFF36F8F0423184602DF9EE703F0F2
:1037B0007F0343F00803437301F0FEF89DE74FF0E9
:1037C0000009C7E785F31188BFF36F8F83F3118872
:1037D000BFF36F8F0423184602DFEFF3118020231D
:1037E00083F31288BFF36F8FD4E785F31188BFF39B
:1037F0006F8FD1E7BC050020D4050020A80300206E
:10380000D3B5DDE90667089CCDE90067FFF71AFE2E
:103810001CB1034B9B681B69236002B0D0BD00BF85
:10382000BC050020044BC01A044BC0105843044B85
:1038300001221A54704700BF28040020ABAAAAAA8C
:10384000F4050020C3897F2B12D80A4B1B6863B193
:10385000094B90F90E201B689A4209DB437BDB067B
:1038600006D1064BC31A18BF012303F001007047AD
:103870000023FAE7EC010020E8050020A802002060
:1038800070B50E4B0E4C1E7C06EB460304EBC304D6
:103890000546204601F05AF90A4B002228469A555F
:1038A000FFF7D0FF48B1084B08491A68013A204693
:1038B000D317BDE8704000F085B870BDBC0500208E
:1038C00028040020F4050020EC0100202538000029
:1038D00038B5EFF31185202383F31288BFF36F8F80
:1038E000104B114A9C681068A04206D1FFF7C8FF30
:1038F00085F31188BFF36F8F38BD00211B7C1160E9
:103900000A4AD35C002BF3D02046FFF79BFF002828
:10391000EED0637BDB0602D12046FFF7D3FC2046C6
:10392000E4E700BFBC050020E4050020F40500200A
:103930000748084A084908B5121A00F0DCFF074892
:10394000074A0849BDE80840121A00F0D4BF00BF7A
:1039500000000020000200201C5100000000002098
:10396000000000201C510000024B1868984208BF5C
:1039700000207047F0010020034B1B680BB9FEF7D5
:10398000E3B80020704700BFEC05002030B570B1EF
:103990000B4B5B6898420AD0036843B1D3E904211A
:1039A000D0E90445121941EB0501C3E90421D0E92E
:1039B000003213605A600023C0E9003330BD00BFFD
:1039C000F0010020B3F1FF3F08BFB2F1FF3F2DE946
:1039D000F84F0446994615461F467AD08160EFF3AA
:1039E0001188202383F31288BFF36F8FB9F1000F82
:1039F000DFF8E4A020DBFFF7BFFFDAE9002701359D
:103A000049F100092D1849EBE073C4E90453AD18DE
:103A1000064643EB07074FF00109FFF7A5FFDFF864
:103A2000BCE0DEF804A00346EBB9C4E900EACAF83A
:103A30000040CEF8044028E0DAE900126FF00103FC
:103A40005B1A4FF0FF3161EB02025B1B62EB090274
:103A5000012B72F10001BCBF01230022C0E9043236
:103A60004FF00009D9E7D3E9041CD4E904208A42C5
:103A700070EB0C0B24DA891A5A686CEB0000C3E96E
:103A80000410C4E9003214605C60FFF76DFF8442EB
:103A90000ED1134B1B685BB9B9F1000F02D1FFF7D0
:103AA0006BFF0646304601F03AF80021FEF71EF89B
:103AB00088F31188BFF36F8F28463946BDE8F88F29
:103AC000521A60EB0C009A45C4E90420ADD01B6883
:103AD000AAE700252F46EFE740040020F001002070
:103AE000EC0500202DE9F047EFF31185202383F347
:103AF0001288BFF36F8FDFF8A490DFF8A480C9F8B5
:103B00000000FFF731FF00260027D9F80030D8E980
:103B100000ECD91750B1D0E90442A34271EB020A7C
:103B20001CDAE41A62EB0102C0E9044213EB0E0353
:103B30004FF000044CEB01012046C8E90031C9F800
:103B4000004000F0ECFF2146FDF7D0FF85F311881F
:103B5000BFF36F8FBDE8F047FFF7BABE14EB0E025C
:103B60004CEBE473C0E90467C8E90023FFF70EFFDC
:103B700085F31188BFF36F8F83689847EFF3118542
:103B8000202383F31288BFF36F8FD9F800301B1BFB
:103B9000C9F80030FFF7E8FEB7E700BFEC050020EA
:103BA0004004002010B5EFF31184202383F3128822
:103BB000BFF36F8FFFF7E0FE054A0346D2E900012D
:103BC000181841EBE37184F31188BFF36F8F10BDB8
:103BD00040040020014800F0FFBA00BFD9500000A7
:103BE00007B5074B0093074907484FF0FF334FF4E1
:103BF0008062FFF7DDF9002003B05DF804FB00BF31
:103C000054500000C0150020480400202DE9F04F5A
:103C10008DB043680293837815469A07804640F139
:103C20000D8100240E78002E00F00A81252E0BD085
:103C30004B1C03930134029B4146304698470028B1
:103C4000C0F2F6800399EDE74E788B1C252E039386
:103C5000F0D00027B946BB46BBF11F0F38D8A6F1FC
:103C60002003102B0AD8DFE803F02A0909300909DC
:103C7000092109090928092D09091F00A6F13003A6
:103C8000092B33D92A2E37D11BF0400F55F8043BAE
:103C900040F08280002BA7BF4BF0200B9946C3F168
:103CA00000094BF0280B01E04BF0010B039B13F8CC
:103CB000016B0393002ECFD130E04BF0020B4BF0A1
:103CC000040BF3E74BF0080BF0E74BF0100BEDE7BC
:103CD000BBF17F0F19D8A6F13003092BD2D81BF006
:103CE000400F03D00A2101FB0737DFE70A2101FB60
:103CF00009394BF0200BD9E72E2E06D11BF0400FCF
:103D000040F09E804BF0400BD0E76C2E31D02BD88A
:103D1000682E36D06A2E3CD04C2E3AD0002F46F07A
:103D20002003B8BF2BF04002A3F16501BCBF1FFA0E
:103D300082FB0027022901D9612B2FD1073525F0FD
:103D40000705DFF8ACA2083507271BF0080F66D07F
:103D50000AEB070B56465E4563D1A4EB0A0A06EB55
:103D60000A02A9EB07096FE1742E9FD07A2E9DD02D
:103D7000D4E71BF0800F18BF4BF4007B4BF0800B97
:103D800094E71BF4807F18BF4BF4007B4BF4807BDF
:103D90008CE74BF4207B89E71F4687E7A6F1630198
:103DA000122900F2F080DFE811F013004F00EE005E
:103DB000EE00EE00EE004F00EE00EE00EE00EE0032
:103DC000EE00FE00E900EE00EE001B00EE00AF008A
:103DD00055F8043B8DF8183001270DF1180AB4E7A7
:103DE00055F804AB834BBAF1000F08BF9A461BF09D
:103DF000400F14BF39464FF0FF31504600F0E8FE47
:103E00000746A2E7029B41462020984700280FDB87
:103E1000013EB742F6D34C44A41BB14698E74E4648
:103E2000F7E716F8010B029B41469847002892DA03
:103E300098F8023043F0040388F802304FF0FF3462
:103E400020460DB0BDE8F08F1BF0800F34D01BF47E
:103E5000007F2CD0073525F00705AA4669685AF877
:103E6000080B2BF010050029ADB237DA404261EBA8
:103E7000410145F480650DF1180B0A235A4600F004
:103E8000B3FEA0EB0B0301936B0662D5019B25F0FB
:103E900001019F4289B240F3A180002E00F0998079
:103EA00015F0100240F09C80BB460D4623E0AA4668
:103EB0005AF8040BC117D4E7AA461BF4807F5AF8BE
:103EC000041B01D10846F5E71BF4007F15BF48B27B
:103ED00008B241F3C01141F3C031C2E750EA010317
:103EE000C9D11BF0400FC6D0002FC4D12BF0110256
:103EF00095B2BB46019740F2064115EA01021CBF8C
:103F00000BF1010B00222CE02BF010021FFA82FBB8
:103F10000A231BF0800C49D01BF400711DBF07352C
:103F200025F00705AA46AA461ABF5AF8080B696881
:103F30005AF8040B50EA010545D12BF016051BF089
:103F4000400FADB242D0002F40D12BF0170295B2F6
:103F5000019715F0100248D0019B002E42D103F1C9
:103F6000010B29075AD4EB0706D5D9456FDD019916
:103F7000A9EB0B035F18CB465B4649E04BF0100BF7
:103F800010237826C5E7782B04D1C6F1780343F0D7
:103F90001003BEE7029B4146252098470028FFF604
:103FA00047AF023447E608230026B2E7AA461BF4CF
:103FB00080715AF8040BBDD01BF400711ABFC0B257
:103FC000614680B2B6E72BF0060295B20DF1180BF0
:103FD00054E725F01105ADB2BB468CE70D46B8E7B6
:103FE0003B460D4603F1020BBBE7DDF804B082E768
:103FF000115100000A510000CDE904324146029BF4
:10400000202098470028FFF613AF049B059A013340
:104010009945F1DCA4EB0B01CC189B460AB3029B3B
:104020004146302098470028FFF602AF8EB9013490
:104030002744019B391B994224DC1D465DBB019A34
:10404000A9EB0B09224455461446914435E0019FE3
:1040500092E7023441463046029B98470028E7DA4F
:10406000E6E640F206410D42E2D015F0020F14BF21
:104070002B20202015F4806F04F10104414618BF65
:104080002D20E9E7029B414630209847002804F1A3
:104090000104CEDACCE606AB013D4146585D029BF9
:1040A00098470028CADAC3E6029B41462020984779
:1040B000002804F10104FFF6BBAEA9EB0403002BBA
:1040C000F2DCBFE5704708B5FDF760FD00280EDBA8
:1040D000FDF7C8FD00280ADBFCF73AF8FCF742F8C8
:1040E000002804DB0021212000F0D0FCF6E70020AE
:1040F00008BD00210846FDF743BE01210020FDF761
:104100003FBE00EBC100408840087047F8B5034649
:10411000FFF7F7FFB0FA80F0C0F11F0003EB800C4F
:10412000CA00DCF81060171D0C4606328DB256B975
:10413000012101FA00F0D9680143D960CCF81040A0
:10414000DD539D52F8BDF1000431585AD85303EBAA
:10415000C0009E52C5805D52F4E7043A2DE9F0415B
:10416000CC1D114424F0070421F007010E1BF708B1
:10417000B7FA87F2C2F12405AD004FF00008073509
:10418000C2F12002ED0804604146A760C4F80C802B
:10419000920004F1100000F013FD6B0043F00103E6
:1041A000638004EBC5027B1B5900A4F8008051809A
:1041B000A21924F83550A2F80280A35304EBC703D8
:1041C00029465A8842F001025A802046BDE8F04153
:1041D000FFF79CBF002070470FB407B504A951F842
:1041E000040B0191FBF7D0FF03B05DF804EB04B0C2
:1041F0007047038B13F0070305D10368002B0CBF36
:10420000002003207047022B05D1408BB0FA80F0CC
:10421000400980007047012B05D10368002B0CBFBB
:104220000020052070470020704710B50C4600B1F3
:1042300011B96FF0150010BD081D00F093F80028AB
:10424000F9D1A368032BF6D9F3E72DE9F0410D4628
:1042500007461946281D90461E4600F094F804466D
:1042600038B13346424629463846A446BDE8F041B7
:104270006047BDE8F08110B4EFF31182202484F38D
:104280001288BFF36F8F416110BC0121FBF7AEBFF5
:1042900038B50C46054658B151B10B6843B14B686F
:1042A00033B11C22002100F08BFC2C61002038BDB2
:1042B0006FF01500FBE770B505460E46FFF7B5FF3A
:1042C000041E14DBEFF31182202383F31288BFF363
:1042D0006F8F6B8B2C8B4FF6FF718B4204F00704B2
:1042E00007D182F31188BFF36F8F6FF00A04204665
:1042F00070BD022C0CD101336B8382F31188BFF3A4
:104300006F8F0023224631462846FFF79EFFEEE7D7
:10431000062C14D8DFE804F004131313041A040065
:10432000002333606B683BB9C5E90066ACB9022174
:104330002846FBF75BFFDAE71E606E60F6E782F364
:104340001188BFF36F8F6FF00404D0E782F31188F8
:10435000BFF36F8F6FF08504C9E782F31188BFF355
:104360006F8FC4E7034658B1426802F00302012A86
:1043700003D0032A04D1026812B10020986070476C
:104380006FF0150070474268816002F00302032A53
:104390004FF0000203460CBF006810465A60704799
:1043A0007047012801D1EFF30583FEF769BB014691
:1043B0000068FFF7F6BF08B5FCF72CF8BDE8084029
:1043C000FCF74CB800210120FFF7EBBF61B662B6E5
:1043D00080F31188BFF36F8F704772B6002383F3A9
:1043E0001188BFF36F8FBFF34F8F30BF62B6BFF33B
:1043F0006F8F704772B6002383F31188BFF36F8FFE
:10440000BFF34F8F20BF80F31188BFF36F8F62B669
:104410007047202809D9B0F1004F08D80138B0FA08
:1044200080F0C0F11F0040007047082070473E2018
:10443000704708B5FCF718FC002008BD0022C0E951
:104440000122027B016022F00F0202730B6803B1AC
:104450001847704770B504460D46D1B1037B5A0723
:1044600017D40268916859B143F004030373936849
:104470009847237B13F002020BD162F3820323736C
:104480002368C4E900532B681BB12046BDE8704087
:10449000184770BD08B5027B910701D5806808BD3B
:1044A000036822F00F0202735B680BB90020F6E785
:1044B0009847FBE70369C9B20C2201FB0233186C71
:1044C00000F00700704770B5C9B20369EFF31185BA
:1044D000202484F31288BFF36F8F0C2606FB01346F
:1044E000246C14F0C00408D0A24206D085F31188D1
:1044F000BFF36F8F4FF0FF3070BD06FB0133012219
:104500001A6485F31188BFF36F8F436803EBC1030F
:104510005B6898470020EFE78022FFF7D4BFF8B52B
:10452000069F0469C9B2EFF31186202585F312882E
:10453000BFF36F8F0C2505FB0144256C05F0070CBC
:10454000BCF1010F0CD1276486F31188BFF36F8F84
:10455000C4E90E23436853F8313098470020F8BD72
:1045600005F0C005AF4286F31188BFF36F8F0CBF13
:104570006FF077004FF0FF30F1E713B5802400941F
:10458000FFF7CDFF02B010BD10B40069CBB21C2400
:1045900003FB0400002110BC10470020FDF7E8BD1C
:1045A000002000F0F2B81046FEF7A6BB43685B6837
:1045B000D3F810350B600020704743685B6802EA4F
:1045C000010021EA0201C3F80805C3F80C15002018
:1045D000704743685B680020C3F80815704743685C
:1045E0005B680020C3F80C15704743685A68D2F81E
:1045F000043521EA03000B40C2F80805C2F80C3567
:104600000020704710B503695868F8B1884219D185
:104610009C6808685860A14200D19860002008603A
:104620002AB15A680A609A68596002B999600020F4
:1046300010E0814206D10868206098688142EDD17F
:104640009C60EBE7044600680028F2D1002AE8D11C
:104650006FF0150010BD30B543681360057A4468EB
:1046600004EBC504A34202D36FF0010030BD5C79B6
:104670008C4201D00833F0E70020F7E743681B685D
:10468000D3F88004C3F88004704742681368D3F8F5
:10469000100150B1D269002012780A70C3F81001DD
:1046A000D3F8102101221A6070474FF0FF30704795
:1046B00002680346D2F8580140B95B68DB0706D4AC
:1046C000D2F82001003818BF012070470120704740
:1046D00043681B68D3F80423D20517D5D3F82021EB
:1046E000A2B1EFF31182202181F31288BFF36F8F03
:1046F000D3F8201131B10021C3F82011D3F82011D3
:104700000121D96082F31188BFF36F8FD3F858313C
:10471000704700F150039B009BB203F1804303F507
:10472000883300221A601B68704737B50C4605694C
:10473000836801A95B68984748B9019B2A685A4079
:10474000012303FA04F10A4214BF1846002003B003
:1047500030BD10B5044610F8141C50F8180CFFF7C3
:10476000E4FF10B1012304F8103C10BD004700F035
:104770008EB8C00000F1804000F5F830C0F8101588
:10478000C0F814257047FEF775B9FDF76DBCF7B595
:10479000019001A8DDE9084716461D46FDF77AFDA0
:1047A000019BB6F1000C18BF4FF0010C00EB830029
:1047B0000B1E18BF0123002D43EA4C0314BF4FF01A
:1047C0000C0C4FF0000C002C43EA0C0314BF4FF408
:1047D000E06C4FF0000C002F43EA0C03D0F80027E8
:1047E00014BF4FF4403C4FF0000C43EA0C0322EAA4
:1047F000030301B109780EB13678760019430DB183
:104800002D78AD0031430CB12478240229430FB137
:104810003F783F040C433C43C0F8004703B0F0BD71
:104820001FB50DF10F03019300238DF80F100093B6
:104830001A461946FFF7ABFF05B05DF804FB38B523
:10484000054608460C46FDF777FDB0B10846FDF772
:1048500067FD90B90846FDF757FD2A68012383409C
:10486000C2F808332A6803B202EB8303D3F8102599
:1048700022F00302C3F8102538BD20460021BDE810
:104880003840FFF7CDBFFDF7DDBDFFF7D8BF08B15A
:10489000FCF732BA7047704740B1C368587810F0DF
:1048A00001001EBF1878B0FA80F040097047EFF39E
:1048B0001183202383F31288BFF36F8FFEE708B5BF
:1048C000FFF7F5FF10B54369044633B90020E268ED
:1048D000537843F00103537010BD98470028F5D07A
:1048E0000028B8BF4042E368FF28A8BFFF20187027
:1048F000EDE700F065B900F055B908B52024EFF3F5
:10490000118384F31288BFF36F8FFFF766FDF6E71C
:10491000026801238B4022EA0303036022FA01F0BC
:1049200000F00100704710B5032104460C30FFF77A
:10493000EFFF30B104F1100000F008F9B0FA80F098
:10494000400910BD20B1002211468C3000F0C5B8DE
:10495000704773B50446EFF31185202383F3128863
:10496000BFF36F8F0023A0F11006032104380193D9
:10497000FFF7CEFF28B1A369019301A93046FEF7E6
:10498000BBFA85F31188BFF36F8F02B070BD38B5E5
:10499000302204460D46002100F012F94FF48073D6
:1049A0006560E36038BDEFF30580003818BF012073
:1049B00070476FF057007047D0E9003213605A60BB
:1049C0000023C0E90033704708B5FFF7F5FF437BCC
:1049D00023F0020343730023836008BD38B5044607
:1049E0000D46FEF737FC637B43F002036373E5B1CA
:1049F000A5602B689D4209D16B68C4E900531C6017
:104A00006C6012E06A689A42F6D01B68002BF3D003
:104A100094F90E2093F90E108A42F3D09142F1DD01
:104A20005A68C4E9003214605C6038BD10B5EFF319
:104A30001184202383F31288BFF36F8FFEF7C8FB26
:104A400084F31188BFF36F8F10BD10B50146EFF3EB
:104A50001184202383F31288BFF36F8F437B13F0FD
:104A6000280F0AD183680BB1FFF7AEFF4B7B23F011
:104A700004034B730846FEF7ABFB84F31188BFF3C6
:104A80006F8F10BD01211838FFF7DFBF38B504461E
:104A90000D46FEF7B3FDB5F1FF3F08BFB4F1FF3F90
:104AA0000246204618D000204FF47A7447F6FF7370
:104AB0000146C2FB0431B3F5004F71F100020BD384
:104AC0006FF400429A4243F6FF728A4126BFD80B28
:104AD00040EA41406FF0004038BD38B5EFF3118532
:104AE000202383F31288BFF36F8F0468A04212D093
:104AF0009CB1A16722612046FFF766FF04F1180010
:104B000000F024F82046FEF763FB012085F31188AE
:104B1000BFF36F8F38BD0020F8E72046F6E708B5F1
:104B20000246FEF721FF70B1D0E904319B1A61EB18
:104B3000E272B3F1004F72F1000104DA002AACBF57
:104B40001846002008BD6FF00040FBE738B502466C
:104B5000EFF31185202383F31288BFF36F8F03686F
:104B6000CBB1FEF701FF04461046FEF70FFF00220F
:104B70004FF000438442C0E9042306D1FEF7FCFE57
:104B8000FFF7CDFF0021FCF7B1FF002085F311886E
:104B9000BFF36F8F38BD6FF01500F7E708B5FFF76B
:104BA00001F808BD0A44914200F1FF3300D170477B
:104BB00010B511F8014B03F8014F9142F9D110BD26
:104BC00002440346934200D1704703F8011BF9E702
:104BD00010B5024601448A42134603D01C780132C4
:104BE000002CF8D1181A10BDF0B5C3F137070446F0
:104BF000FFB203F01F031046082BE6B233D0102B90
:104C00003ED06508A40844EA817445EAC1752D19AF
:104C10004FEA910242EB5102290941EA02716D18F3
:104C200042EB1212290A41EA02616D1842EB12228C
:104C3000290C41EA02416D1842EB1242AD1842F1D3
:104C40000002EC0844EA4274D10804EB8402A6EBAB
:104C50004205EDB2092D0CD90134A5F10A0541F147
:104C60000001EDB212E0E40844EA417406F00705E1
:104C7000C908303554EA010200F8015BBCD1F0BD2F
:104C8000240944EA017406F00F050909092D84BFBF
:104C9000ED19EDB2EDE70000014800687047000033
:044CA000FC040020F0
:104CA400B50C00000000000000000000EC4C000007
:104CB400000000002C4D0000000000000C4D00001E
:104CC400000000004C4D00001D100000000000001A
:104CD4008919000000000000910C00000000000091
:084CE400E13B000000000000AC
:104CEC0075500000984F0000104F0000F801002094
:104CFC0030050020B50D0000000000000000000091
:104D0C0084500000A84F0000EC4E0000FA01002077
:104D1C0084050020D51100000000000000000000F8
:104D2C0092500000C04F0000EC4E0000FC0100202F
:104D3C0090050020D51100000000000000000000CC
:104D4C00A8500000D84F00002C4F0000FE0100209E
:104D5C009C0500202116000000000000000000004F
:104D6C00192200006D47000000000000C543000040
:104D7C004C4D0000D146000000000000C54300006F
:104D8C0000000000C543000000000000C543000007
:104D9C00B92800006D47000000000000C54300006A
:104DAC0000000000C543000000000000C5430000E7
:104DBC0000000000C543000000000000C5430000D7
:104DCC0000000000C543000000000000C5430000C7
:104DDC0000000000C543000000000000C5430000B7
:104DEC0000000000C543000000000000191A00007C
:104DFC0000000000C543000000000000C543000097
:104E0C0000000000C543000000000000C543000086
:104E1C0000000000C543000000000000C543000076
:104E2C0000000000C543000000000000C543000066
:104E3C0000000000C543000000000000C543000056
:104E4C0000000000C543000000000000C543000046
:104E5C0000000000C543000000000000C543000036
:104E6C0000000000C543000000000000C543000026
:104E7C0000000000C543000000000000C543000016
:104E8C0000000000C543000000000000C543000006
:104E9C0000000000C543000000000000C5430000F6
:104EAC0000000000C543000000000000C5430000E6
:104EBC0000000000C543000000000000C5430000D6
:104ECC0000000000C543000000000000C5430000C6
:104EDC0000000000C543000000000000C5430000B6
:104EEC001D120000AD450000BB450000D34500007D
:104EFC00DF450000EB4500006D100000054600008A
:044F0C0000000000A1
:104F10000D0E0000194500007B4500000000000058
:0C4F2000B544000000000000000000008C
:0C4F2C008B4600006D1500007D46000063
:104F40000338FDD870470000FB4000002901000035
:104F500000000000F340000001010000000000001C
:104F6000000000200000000000000B06020000000E
:104F7000744F000000000000605000002600020690
:104F8000000000206850000022000B113D0D0000C1
:104F90000D0D0000000000008D0E0000810D0000CE
:104FA0009B450000A1450000FFFF000000030050EA
:104FB0000000000001000000006000400000000050
:104FC000BCF801FF000000500000000000000000DD
:104FD00000600040000000000020004001000000D0
:104FE00000000000F84F00000000D60100000000A3
:104FF000F2050020F10500200020004004500000D0
:10500000010000000C500000040000000600000039
:10501000050000020806000107060003D800002072
:1050200090000020480000200000002058010020CF
:105030004C0100204001002034010020A44C00005D
:10504000A44C0000D44C0000DC4C0000EC4C0000F0
:10505000EC4C0000015100000001000000000000C5
:10506000464C4153485F30005352414D5F30000081
:105070000001000000636C6F636B403430303030EF
:10508000303030006770696F403530303030333049
:1050900030006770696F403530303030303030006C
:1050A0000001020304050607756172744034303054
:1050B00030323030300000000000000101000000FC
:1050C0000000002030303030303030303030303080
:1050D000303000016D61696E002A2A2A20426F6F0C
:1050E00074696E67205A6570687972204F53206228
:1050F00075696C642076342E322E30202A2A2A0AD2
:1051000000737973776F726B7100286E756C6C2900
:0C511000002A666C6F61742A0000000029
:10511C002C4D0000190011000000000000000000E0
:10512C000000000000000000000000000000000073
:10513C000000000000000000000000000000000063
:10514C000000000000000000000000000000000053
:10515C0000000000000000002C4D000018001100A1
:10516C000000000000000000000000000000000033
:10517C000000000000000000000000000000000023
:10518C000000000000000000000000000000000013
:10519C000000000000000000000000000000000003
:1051AC002C4D00000C00110000000000000000005D
:1051BC0000000000000000000000000000000000E3
:1051CC0000000000000000000000000000000000D3
:1051DC0000000000000000000000000000000000C3
:1051EC0000000000000000002C4D00000B0011001E
:1051FC0000000000000000000000000000000000A3
:10520C000000000000000000000000000000000092
:10521C000000000000000000000000000000000082
:10522C000000000000000000000000000000000072
:10523C00D5410000000000003344000000000000D5
:10524C00000000002C4D00001000010000000000C8
:10525C002C4D00000F000100000000002C4D000040
:10526C000E000100000000002C4D00000D0001009C
:10527C000000000000000000000000000000000022
:10528C000000000000000000000000000000000012
:10529C000000000000000000000000000000000002
:1052AC0000000000000000000000000000000000F2
:1052BC0000000000000000000000000000000000E2
:1052CC0000000000000000000000000000000000D2
:1052DC0000000000000000000000000000000000C2
:1052EC000000000008000000FF00000000000000AB
:1052FC000300000000000000FFFF0F009002000000
:08530C00F0010020F001002077
:08531400000000000000000091
:04531C0015E015E0A3
:0400000300000731C1
:00000001FF
